:1028A8006D61696E202074657374210D0A00563AB3
:0628B8002025640D0A005A
:0829C500F0A3F0A3F0A3F0223F
:10290F00E5894410F589758DFB758B33D2ABD28E6B
:01291F002295
:03001B00021D5370
:101D5300C0E0C0F0C083C082C0D075D000C000C056
:101D630001C002C003C004C005C006C007758DFBD7
:101D7300758B339003CBE475F0011207449003CBCA
:101D8300E0B4FF0CA3E0B4FF079003CBE4F0A3F0AF
:101D93001229BC120D9890006EE0D394004008E025
:101DA30014F0E07002D20A7802E2701A18E22401F9
:101DB300F218E23400F2D308E294E818E294034004
:101DC3000578027401F2D007D006D005D004D00301
:101DD300D002D001D000D0D0D082D083D0F0D0E0D8
:011DE30032CD
:0929B3009003CBE0FEA3E0FF223B
:102551007F041221B2E4FF12295012290FC2AAC22C
:102561008B1229E37F007EC27D017C001225907FC2
:10257100807E257D007C00122641122705782CE201
:0F25810060031228BEE47802F27800F208F2221A
:1026A700E4F5B1F5A190FC00E04440F0E58654F074
:1026B7004404F5861227F2EF60FAA2AF9200C2AF88
:0F26C7001229EAE58654F0440BF586A20092AF83
:0126D60022E1
:101CBF00E4782CF27F0112295090800D7402F0C24B
:101CCF0095A3F0C29690800BF0C29353D8F39080F7
:101CDF001DF0C2B5E4908008F0A3F0A3F090800C43
:101CEF00F0A3F0908019F0908018F090801C74028F
:101CFF00F090801EF0A3F09080001229C5A3122946
:101D0F00C5908010F0A3F0C2B4C2B6C2B7C280C2F1
:101D1F0081C282C283C284C285C286C287C2A0C268
:101D2F00A1120003C2CEC2ACC2AEC2ABC28EC2E819
:101D3F0053F9FE43B920E4F5B9F5D8122985E4F536
:041D4F00AD0226A714
:101C24007F041221B27F007EC27D017C00122590C8
:101C340012290F7F807E257D007C00122641120030
:101C4400261229E390801A7403F0A3F0E4FBFD7FCD
:101C54000112231E7B287D0AE4FF1229A8E4FF1247
:101C640029501227051228BE7822741FF2087440E6
:101C7400F2E4782CF2780F04F278127413F20874F8
:101C840088F27BFF7A2879A812260BD2AF121000B3
:101C94009003CBE0FEA3E0FF7C007DC81206EFEDCD
:101CA4004C70EA7BFF7A2879B67822E2FF08E27862
:0B1CB4003BCFF208EFF212260B80D2AB
:021EEC00C18DA6
:0729D50043A14053A2F822C8
:0C29850043A180E5A254F84401F5A22211
:1021B200EFC394024057EFD394085051300D2BAE29
:1021C200A143A1E0759306759240759188E59154FB
:1021D200C070FA859795859694E5A254F84405F562
:1021E200A27591C8E59154C070FAEF24FE333333DF
:1021F20054F84480F5ADE5AD30E0FBE5A254F84477
:0D22020004F5A2300D07EE4440F5A1C20D19
:01220F0022AC
:0F29410008E2FF24FFF218E2FE34FFF2EF4E220D
:10280000EF7802C333CE33CED8F9FFEF1FAA06709C
:10281000011E4A600BE4FDEDC3940F50EE0D80F7EE
:012820002295
:102842007838EEF208EFF2783812294160097F50A9
:0B2852007E0012280080F075AAA5226D
:102878007803EEF208EFF2780312294160097FF439
:082888007E0112284280F022BB
:10226E00A3E004F075F064E084E5F0F0E0227F2056
:10227E00FEFDFC12089112075AA804A905AA06AB86
:10228E0007E4FFFE7DE1FC1207E5C3E49FFF222475
:10229E0069F582E43401F5832224CDF582E434011C
:1022AE00F58322ED2464FEE0FDC3EE9DFE22246F35
:0822BE00F582E43400F58322EF
:05259000783812089EDE
:102595009080197403F0908018F0E4900231F0A354
:1025A500F090006AF0A3F0C20BC209783812227CC1
:1025B500E49EAD0775C824F5CBAE058ECAF5CD8E64
:0825C500CCD2CE759850D2ACC7
:0125CD0022EB
:1023FF00900232E0FD900231E0FCC39D5006C3ED28
:10240F009CFE80069002311222B1EED3940140E07F
:10241F00C2AC90023112226F12229DEFF0200B11ED
:10242F00D2AC90023212226F12229DE0F599D20B9C
:03243F0022D2ACFA
:012442002277
:030023000220E0D8
:1020E000C0E0C0F0C083C082C0D075D000C007304F
:1020F0009830C29890006A122272FF1222BCE599B1
:10210000F0746E2FF582E43400F583E0B40D0D9089
:10211000006AE01222BCE0B40A02D20990006AE030
:1021200004F030991BC299900232E0FF900231E036
:102130006F600B12226E12229DE0F5998002C20B95
:0D214000D007D0D0D082D083D0F0D0E032D4
:05264100783812089E2C
:10264600E4900233F0A3F090006CF0A3F0C20CC249
:102656000A783812227C74049EFC90800A7403F077
:0E266600908009F0ECF59D8F9C759AD0D2AE55
:012674002243
:10244300900234E0FD900233E0FCC39D5006C3EDDF
:102453009CFE80069002331222B1EED3940140E039
:10246300C2AE90023312226F1222A7EFF0200C119A
:10247300D2AE90023412226F1222A7E0F59BD20C47
:0324830022D2AEB4
:012486002233
:03003300022000A8
:10200000C0E0C0F0C083C082C0D075D000C007E57A
:102010009A30E029E59A54FC4401F59A90006C75D9
:10202000F09612227524D3F582E43400F583E59B03
:10203000F090006CE004F090006E7432F0E59A309D
:10204000E121E59A54FC4402F59A900234E0FF90B5
:102050000233E06F600B12226E1222A7E0F59B8024
:1020600002C20CD007D0D0D082D083D0F0D0E032E2
:1028E900C20AE490006CF0FE7F96FD7B017A0079C4
:0428F900D30208FE00
:1027AE00784D1208CF784D1208B612066360127873
:1027BE004DE475F0011208BF120663FF1223FF806D
:0227CE00E42203
:05260B0078381208CF31
:102610007BFE7A00793B784A1208CF78381208B6E8
:10262000784D1208CF784A1208B678501208CF7B3E
:10263000017A0279CB1225CE7B017A0279CB02276F
:01264000AEEB
:101739004552524F52007B22434F4445223A2225BB
:10174900313573222C2254595045223A22257322CD
:101759007D0D0A000041542B4E534F53443D312C0B
:1017690025642C25730D0A00004E425F52455345EE
:1017790054310D0A004F4B004E425F4F4B0D0A008A
:10178900627265616B0D0A004E425F4445565F52B5
:10179900455345540D0A0041540D0A00004E425F5D
:1017A90041540D0A004F4B0D0A0041542B434D453E
:1017B900453D310D0A000041542B434D45453D310E
:1017C9000D0A0041542B43494D490D0A000041546B
:1017D9002B43494D490D0A006553494D3A25313589
:1017E900730D0A0041542B4347534E3D310D0A00F6
:1017F9000041542B4347534E3D310D0A002B4347BB
:10180900534E3A00694D45493A253135730D0A0061
:1018190041542B534E0D0A000041542B534E0D0ACF
:10182900002B534E3A534E00734E3A253135730D02
:101839000A0041542B4346554E3D310D0A000041E3
:10184900542B4346554E3D310D0A0041542B434715
:101859004154543D310D0A000041542B4347415432
:10186900543D310D0A0041542B4E534F434C3D31E9
:101879000D0A000041542B4E534F434C3D310D0A84
:101889000041542B4E534F43523D53545245414D01
:101899002C362C36353030302C310D0A00004154AD
:1018A9002B4E534F43523D53545245414D2C362CE8
:1018B90036353030302C310D0A004E534F43523DEE
:1018C9004F4B0D0A0041542B4E534F434F3D312C82
:1018D90034372E3130372E3233362E3137382C38D3
:1018E9003030300D0A000041542B4E534F434F3DC9
:1018F900312C34372E3130372E3233362E313738BA
:101909002C383030300D0A004E534F434F3D4F4B6A
:101919000D0A005354520D0A004E534F53443D4F84
:101929004B0D0A002B4E534F4E4D493A312C33374C
:1019390000493A312C33370D0A002B4E534F4E4D87
:10194900493A312C333900493A312C33390D0A00DF
:101959002B4E534F4E4D493A312C333300493A31CE
:101969002C33330D0A002B4E534F4E4D493A312C2F
:10197900333500493A312C33350D0A0072785F66E8
:101989003A2025730D0A00492D6F6B0D0A00495F36
:101999006572726F720D0A00563A2025640D0A00AD
:1019A90053746F700D0A007274632077616B650D53
:1019B9000A00696E742077616B650D0A004449530A
:1019C900434F4E4E4543545F57495245004C4F577C
:1019D9005F424154544552590000000000303132F1
:1019E90033343536373839414243444546000000DF
:1019F90000000000000000000000000000000000DE
:101A090000000000000000000000000000000000CD
:101A190000000000000000000000000000000000BD
:101A290000000000000000000000000000000000AD
:101A3900000000000000000000000000000000009D
:101A4900000000000000000000000000000000008D
:101A5900000000000000000000000000000000007D
:101A6900000000000000000000000000000000006D
:101A7900000000000000000000000000000000005D
:101A8900000000000000000000000000000000004D
:101A9900000000000000000000000000000000003D
:101AA900000000000000000000000000000000002D
:101AB900000000000000000000000000000000001D
:101AC900000000000000000000000000000000000D
:101AD90000000000000000000000000000000000FD
:101AE90000000000000000000000000000000000ED
:101AF90000000000000000000000000000000000DD
:101B090000000000000000000000000000000000CC
:101B190000000000000000000000000000000000BC
:101B290000000000000000000000000000000000AC
:101B3900000000000000000000000000000000009C
:101B4900000000000000000000000000000000008C
:101B5900000000000000000000000000000000007C
:101B6900000000000000000000000000000000006C
:0E1B790000000000000000000000000000005E
:101EEE00203822000000000000000000000000006A
:101EFE0000000000000000000000000000000000D4
:101F0E0000000000000000000000000000000000C3
:101F1E000000000000000000000000880500000026
:051F2E000000000000AE
:100F37007BFF783F1208CF7B017A0079D32278258F
:100F470006E418F608E6D3940322D37827E694F448
:100F570018E69401227822760EE47824F608F67BC8
:100F6700FF22783D1208B68F8275830002067C78CF
:100F770033E2FF6402227D017BFF7E0002063DFB18
:100F8700783B1208CF7BFF22540F2444F8E2FE7807
:100F9700411208B675F002EF22E47824F608F6222B
:100FA7007612E47802F27800F208F2227834E2FF4F
:100FB700C3941422E47859F678337402F27BFF2243
:100FC700D37827E694D018E69407227B017A037931
:040FD7002F0208CF0E
:0D00260090800B7402F090800DF0D29522B6
:09236B00783D1208CF7840EDF234
:1023740078447C007DFE7BFF7A1979E67E007F112C
:1023840012063DE4FF7840E2FEEFC39E5024120F94
:1023940069C4120F8FA4F58285F083EE1206BB1276
:1023A4000F69120F8F9000011208AAEE1206BB0FDC
:0223B40080D3D4
:0123B6002204
:1027D00078381208CF78381208B61206636012787B
:1027E00038E475F0011208BF120663FF122443801B
:0227F000E422E1
:0929BC00782706E61870010622D6
:0729DC00E47826F608F6225C
:05250F0078381208CF2E
:10251400E4783BF2200A03E2FF227A177939120F9A
:1025240037120E7EE94A4B6007783B7402F280153D
:1025340078381208B6120F39120E7EE94A4B60053C
:0C254400783B7401F21228E9783BE2FFBA
:012550002268
:051B870078381208CFC0
:101B8C0078CB7C027A1979F77F64120F7D782F7CE1
:101B9C00037A1A795B7F96120F7D7BFF7A17793F58
:101BAC0078561208CF7B007A00794878591208CF02
:101BBC007805E275F010A424C6F9741935F0FA7B97
:101BCC00FF785C1208CF7B017A0279CB1209867BF5
:101BDC00017A0279CB1228D4783BEEF208EFF2FDB1
:101BEC007841120FD27A0279CB12236B7BFF7A17D2
:101BFC00795E78561208CF783BE2FF08E27859CF2D
:101C0C00F208EFF208120FD278381208B6120986D1
:071C1C00783BE2FE08E2FF45
:011C2300229E
:10100000E47833F27822E61208D81038001087010D
:1010100010CC0211280411B805125706131007133B
:101020005C0A13A80D13F00E14460F14A310152D0F
:10103000111611120000168ED2937F0A7E0012281C
:1010400042C2931228E91229DC7BFF7A1779728059
:10105000141216ADBF011378227601E47824F67BD2
:10106000FF7A17798112260B80E7D37827E6941050
:1010700018E6942740DB7BFF7A17798912260B7BD1
:10108000FF7A177991C10E7824E6700D7A1779A04E
:1010900012168F7A1779A6C10E7824E664016002D1
:1010A000C18E1216ADBF0106782276026135120F8D
:1010B000766007120F515002C18E120F454004E4B2
:1010C0007822F6EF64026002C18E81417824E670D6
:1010D0000D7A1779B312168F7A1779C0C10E78245A
:1010E000E664016002C18E1216CA6401701C785950
:1010F000E6B401107808E2782260047607800912CD
:101100000FA78004782276056135120F76600712EA
:101110000F515002C18E120F454004E47822F6EFC1
:1011200064026002C18E81417824E6700D7A1779DD
:10113000CC12169E7A1779D7C10E7824E664016026
:0611400002C18E300A47D7
:10114600C20A7834F2120FB3503174D32FF582E409
:101156003400F583E0FFC394304020EFD394395038
:101166001AE2FF24D3F582E43400F583E0FE742806
:101176002FF8A6067834E204F280CA78337401F2B6
:07118600E47837F61228E9B6
:10118D007833E2B4011478227605120FA07A007933
:10119D0028120F867A1779E161E7120F515002C1BB
:1011AD008E18120F475002C18E41527824E6700DF1
:1011BD007A1779ED12169E7A1779FAC10E7824E610
:0911CD0064016002C18E300A5376
:1011D6007A187906120F37120E7E78351208CF7AF2
:1011E60018790612171F120FB3502708120F6BFF3C
:1011F600C39430401DEFD3943950177834E2FFF58D
:1012060082120F70FE74382FF8A6067834E204F2C4
:1012160080D47834E2B40F08187401F2E47847F603
:031226001228E9A2
:101229007833E2B4011478227606120FA07A007995
:1012390038120F867A18790D61E7120F515002C1E1
:101249008E18120F475002C18EE47822F6227824B4
:10125900E6700D7A1879191216BB7A187922C10E1F
:0C1269007824E664016002C18E300A5552
:101275007BFF7A18792A120F39120E7E78351208FB
:10128500CF7A18792A12171F120FB3502708120F99
:101295006BFFC39430401DEFD3943950177834E277
:1012A500FFF582120F70FE74482FF8A6067834E217
:1012B50004F280D47834E2B40F08187401F2E478AB
:0512C50057F61228E9B4
:1012CA007833E2640170237808E2782260047607B2
:1012DA008003120FA7120FA078597601FB7A0079C2
:1012EA0048120F877A18793161E7120F515002C1FB
:1012FA008E18120F474004E47822F67833E264022B
:10130A006002C18E81417824E6700D7A18793B1209
:10131A0016BB7A187948C10E7824E664016002C1C6
:10132A008E1216CABF010D7822760A120F607A173A
:10133A0079AE61E7120F766007120F515002C18E23
:10134A00120F454004E47822F6EF64026002C18E6F
:10135A0081417824E6700D7A1879541216D87A18D1
:10136A007962C10E7824E664016002C18E1216E722
:10137A00BF010D7822760D120F607A1779AE61E7F8
:10138A00120F766007120F515002C18E120F45409C
:10139A0004E47822F6EF64026002C18E8141782467
:1013AA00E6700D7A18796F1216D87A18797DC10EFF
:1013BA007824E664016002C18E1216E7BF010912A1
:1013CA000F5C7A1779AE80157833E26402600712EF
:1013DA000F515002C18E120F5C7A1779AE12260B8A
:1013EA007F507E00A12A7824E6700D7A18798A1235
:1013FA0017027A1879A7C10E7824E664016002C13F
:10140A008E121711BF01147822760F120F607A1804
:10141A0079C312260B7F407E01A12A120F7660073C
:10142A00120FC75002C18E120F454004E47822F60B
:10143A00EF64026002C18E7F50FEA12A7824E67012
:10144A000D7A1879CE1217027A1879F0C10E78241B
:10145A00E664016002C18E121711BF011478227668
:10146A0010120F607A19791112260B7F907E01A152
:10147A002A120F76600ED37827E694E818E69403CA
:10148A005002C18E120F454004E47822F6EF64023E
:0E149A006002C18E7FF0FEA12A7824E6703D2C
:1014A80078357C027D017BFF7A1A79F1FE7F9612EE
:1014B800063D7B017A027935121B87780BEEF2081C
:1014C800EFF21228E97B017A0279351227D07824C5
:0B14D80076011229DC7BFF7A19791CD9
:1014E300C10E7824E664016002C18E7BFF7A17790E
:1014F3007E12250F7833EFF2BF010D782276111299
:101503000F607A197922C10E120F766007120FC786
:101513005002C18E120F454004E47822F6EF6402B4
:101523006002C18E7F50FE0228427824E6FF7005D8
:1015330076010229DCEF64016002C18E200A02A158
:10154300C47805E270327BFF7A19792D120F3912B4
:101553001732600D78337401F27BFF7A19793A8080
:101563004D7BFF7A197943120F39121732604512F6
:101573000FBB7A19795080367BFF7A197959120F8C
:1015830039120E7EEA494B600D78337401F27BFF0A
:101593007A19796680187BFF7A19796F120F3912DD
:1015A3000E7EEA494B600D120FBB7A19797C122625
:1015B3000B1228E9120F3E120F877A19798512262A
:1015C3000B7833E2B4011278227612120FA01216AE
:1015D300F57BFF7A19799080327833E26402600EEA
:1015E300D37827E694A018E6940F5002C18E7809A9
:1015F300E204F2E2C394037822400776121216F54E
:1016030080027601120F607A19799702260B780807
:10161300E2704C780DE270477802E2640170407B1F
:10162300FF7A1979A17822E2FF08E2783BCFF2082A
:10163300EFF212260B7BFF7A1979A912260B7F0290
:101643007E00122842121CBF122551782CE27BFF28
:1016530060067A1979B080047A1979BB12260B785F
:1016630008E2600C120026E47822F67824F608F6E5
:10167300782CE2B401159003CCE020E0031226D7C6
:0B1683009003CCE05403700312214DD3
:10168E00227BFF1227D0782476011229DC7BFF22E1
:10169E007BFF1227D0782476011229DC7BFF227B78
:1016AE00FF7A17797E12250F7833EFF2227BFF1225
:1016BE0027D0782476011229DC7BFF227BFF7A1754
:1016CE00797E12250F7833EFF2227BFF1227D07826
:1016DE002476011229DC7BFF227BFF7A17797E129A
:1016EE00250F7833EFF222121FD5E47802F278003C
:1016FE00F208F2227BFF1227D0782476011229DC21
:10170E007BFF227BFF7A17797E12250F7833EFF25B
:10171E00227BFF1228D47837E22FF218E23EF2E451
:0B172E007834F222120E7EEA494B22B2
:1023B7007808E2FE700574052E802FE4FE7808E2A7
:1023C700FDEEC39D500B74052EF8E26F60030E807F
:1023D700ECEE6D70227808E2FEC3940340077404A4
:1023E7002EF8EFF2227808E22405F8EFF27808E2F7
:0723F70004F2E408F208F211
:0123FE0022BC
:101FD5007808E260257808E214F2E408F208F2785D
:101FE50005E2FFE4FE74062EF8E2FD74052EF8ED19
:0A1FF500F20EEEB402EF7807EFF2EF
:011FFF0022BF
:091F3300870D0000000000000011
:0B299D00E4F9F8FFFE7DE1FC0224CB12
:0729E30090800F7481F022C7
:100D980030971E780EE2C39464502EE204F2E2C348
:100DA8009463402518E2702104F2E4FF1223B7800F
:100DB80018209715780EE2D39400400DE214F2E261
:100DC800700718E2B40102E4F2780DE27002C17A09
:100DD8007811E22401F218E23400F2E2FE08E2FFA0
:100DE8007C007D0A1206EFED4C6002C176780FE2B6
:100DF800601C7813E2240AF218E23400F2C308E215
:100E0800949818E2943A4026E4780FF2801C7813FC
:100E1800E224F6F218E234FFF2D308E2948818E2EA
:100E28009413500A780F7401F2E408F208F2781269
:100E3800E2FE08E2FBAA0612299DAD07AC06C00433
:100E4800C0057813E225E0FF18E233FEEF2454FFD3
:100E5800EE34F2AB07FA12299DAB07AA06D005D0EB
:100E6800047F021229207F0412003612001643D88C
:060E7800042253D8FB2206
:1000030090800F7401F0758E0FD2AAD28BC28A2210
:030013000224873D
:10248700C0E0C0F0C083C082C0D075D000C000C01B
:1024970001C002C003C004C005C006C00775AAA5D5
:1024A700C2AAC28BE4FF122950D007D006D005D0AC
:1024B70004D003D002D001D000D0D0D082D083D0B6
:0424C700F0D0E0323F
:1027050090801D7406F0E4783BF208F208F27B0134
:102715007D017F0212275D7B1E7A027D3C7C047F52
:0C272500021229207F0412003602001668
:0C29910033333354F8FFE5DB54F04F22E1
:10275D008FC0EF30E00BED122991FF783DE24F80F5
:10276D0007AF05EF1229914BF5DB783BE2C433330C
:0A277D00335480FF08E24FF5DC2220
:102920008FC0ECF5DEAF058FDDEAF5D1AF038FDFA9
:012930002284
:030036008FD9223D
:05001600E5D970FC2299
:102675008FC0AF05EFC43333335480FFE5DB540F10
:102685004FFFAE03EEC4333354C04FFF7817E2C497
:102695003354E04FFF08E2C454F04FF5DB08E2F590
:0226A500DA2237
:0729EA0043870200000022F8
:0E27F200E5FF7004E5FE60037F00227F0122F8
:0D296B00001F1C1F1E1F1E1F1F1E1F1E1FF2
:101F3C00812117812008811B00811A00811E1281CA
:051F4C001C08811F07C5
:0D297800781EE2FF781CE2FD781FE2FB22D2
:03006B0002207000
:10207000C0E0C0F0C083C082C0D075D000C000C036
:1020800001C002C003C004C005C006C007E5FA30A5
:10209000E60343FA08E5EE30E02B43EE01E4FF12DD
:1020A0002950782C7401F27829E4F2087428F20897
:1020B000E4F2782DE2600E08E204F2E2D3940540E7
:1020C00004E4F218F2D007D006D005D004D003D033
:1020D00002D001D000D0D0D082D083D0F0D0E03276
:10231E0043A108E5A130E2FBEFC43333335480FF11
:10232E00E5F1541F4FFFAE05EEC4333354C04FFFDB
:10233E00AE03EEC43354E04FF5F17F171227317F11
:10234E003B1228217F1E12293175F21E75F33B7543
:0D235E00F417122978121E70781DEFF2227C
:0B29A8008FECAF058FEBAF038FEA222E
:0E295000EF64016003C2EE2243F11CD2EE22BE
:1029310043F1028FF27F647E0012280053F1FD22E1
:102821007833EFF243F10212283443F10278331284
:10283100283422E2F5F37F647E0012280053F1FD73
:012841002274
:102731007833EFF243F102E5F454E0FF12274E4300
:10274100F102E5F454E0FF783312274E22E24FF50F
:0C275100F47F647E0012280053F1FD228A
:0D295E00EF24D0FFEF54037002D322C322F8
:10289000EDB4020D12295E5008ED90296B9304FFF0
:0828A00022ED90296B93FF2249
:061E70007833EBF2A90536
:101E76007E14E9D39402500FEF75F06484E5F07098
:101E8600011E1F740C29F9EF1313543FFDEF2DFDAE
:101E9600E433FCEE1313543F7A002DFDEA3CFCAF0D
:101EA60006EF75F002A4FFC3ED9FFBEC95F0FAE98F
:101EB6002401FFE433FE7C007D1A1206DD7D0A1242
:101EC60006EFEF2BFFEE3AFE7833E27C002FFFECB5
:101ED6003ECF24C2CF3409FE7D071206EFAF05EFD1
:051EE6006001227F07EE
:011EEB0022D4
:1022C6007820E2FF08F2EF704E781FE204F218E27F
:1022D600FF781CE2FD122890781FE2FED3EF64809F
:1022E600F8EE6480984026781CE204F2781F7401A8
:1022F600F2781CE2D36480948C40127401F2781E4A
:10230600E204F2E2D3648094E34002E4F212297814
:08231600121E70781DEFF22287
:10285D00781AE5F2F208E5F3F2E5F4541F7820F268
:0B286D00E2FF08E26F60031222C622A7
:0F1F51008D2200000000000000000000000000D2
:10221000F208F27824E2FC08E2FDE4120219E4FB81
:10222000FA798078451201777B007AC07928784660
:1022300002006EE4F27926E3C4F854F0C868FF099E
:10224000E3C4540F487824CFF208EFF2227827E253
:102250002FF218E23EF27828E204F2E2C394102250
:0E2260001208851202527822EEF208EFF222E6
:1028BE009080087405F0E4783FF2FBFD7F01120072
:0628CE003E7F010229CD4E
:0329F10002001EC3
:1026D700E4783FF2FBFD7F0112003E7F011229CD16
:0B26E70012001E120FDB12224D4012E9
:1026F200122233E408122210783812089E78381217
:02270200226053
:0127040022B2
:03003B00021F6140
:101F6100C0E0C0F0C083C082C0D075D000C000C046
:0D1F710001C002C003C004C005C006C007C7
:101F7E00E5B930E53743B920AFBDEFFEADBC7C000F
:101F8E00E42DFFEC3EC4F854F0C868FEEFC4540FC5
:071F9E0048FF12224D401222
:101FA50012223308E4122210782F12089E782F127D
:021FB5002260A8
:031FB7001229F1FB
:101FBA00D007D006D005D004D003D002D001D0007B
:0B1FCA00D0D0D082D083D0F0D0E03225
:1028FD00C37823E2947018E2941750037F01227F6E
:02290D000022A6
:10214D00782CE2605F1228FDEF6033C3782AE294A9
:10215D005018E29400504D08E22401F218E23400C8
:10216D00F2C308E2944F18E294004038782BE270E5
:10217D003304F2782DE2702C04F2FF0223B7D378EA
:10218D002AE2940018E29400401A08E224FFF218A3
:10219D00E234FFF208E2700218E27008782BE2B424
:0521AD000102E4F22232
:10003E00EDC4333354C0441C4FF5B975BAF0EBB46C
:10004E00010E783FE2C4333354C04423F5BB800322
:0D005E0075BB23EDB40102D2E843B92022A6
:0829CD00E5BA54F04FF5BA22FF
:04001E0043B9802240
:100FDB00E5B930E5FB43B920AFBDEFFEADBC7C00FE
:100FEB00E42DFFEC3EC4F854F0C868FEEFC4540F78
:020FFB0048FFAD
:010FFD0022D1
:03000000021DE4FA
:0C1DE400787FE4F6D8FD758159021E2BB3
:10006E00EC4D6011E8497017ED33EC3304600DE48C
:10007E00FCFFFEFD22E933E8330470F80202BE12E3
:10008E00028958046009E4CC2481500628500902E4
:10009E0002C82840030202C5C0E0EB4A7044B98092
:1000AE0006D0E0FB0202B4EF4E701CBD8008EBFFE1
:1000BE00EAFEE9FD80EBE98DF0A4FEE5F0020157C2
:1000CE00E9CDF9EAFEEBFFEF89F0A4FCE5F0CE896D
:1000DE00F0A42EFFE435F0CD89F0A42DFEE435F02A
:1000EE008067EF4E7005BD80D780C3EF8BF0A4AC58
:1000FE00F0EE8BF0A42CFCE435F0F8EF8AF0A42C93
:10010E00E5F038FCE433CB8DF0A42CFCE5F03BF8A5
:10011E00EE8AF0A42CFCE5F038F8E433CF89F0A495
:10012E002CFCE5F038CF3400CE89F0A42FFFE5F09B
:10013E003EFEE433C98DF0A42EFEE5F039CD8AF0F3
:10014E00A42FFFE5F03EFEE43DFD33D0E0FB50076B
:10015E000BBB000F0202C8EC2CFCEF33FFEE33FE9C
:06016E00ED33FD0202A0CA
:100174000202C8EC5D046005E8590470030202BE83
:10018400120289580460F6EC4860F2EC7004FDFE3B
:10019400FF22C860DB2481C85009C398600250065E
:1001A4000202C59850CAF582E9294B4A7005AB8210
:1001B4000202B475F0007C1A7880C3EF9BEE9AEDCE
:1001C40099400DC3EF9BFFEE9AFEED99FDE842F0D6
:1001D400DC23ACF0D0E0FFD0E0FED0E0FDAB822029
:1001E400E7101BEB60BAEC2CFCEF33FFEE33FEEDB3
:1001F40033FD0202A0E803F830E705C0F075F00013
:10020400EF2FFFEE33FEED33FD40B830E7C280AA96
:1002140075F020800E75F010800575F0087D007E65
:10022400007F003392D530D503120877EC334010A9
:10023400EF33FFEE33FEED33FDEC33FCD5F0ED226E
:0E024400E5F0247EA2D513CC92E7CDCEFF22AA
:10025200EDD2E7CD33EC3392D524814006E4FFFEA4
:10026200FDFC22FCE4CFCECDCC24E0501174FF8003
:10027200EDC3CC13CCCD13CDCE13CECF13CF0470A0
:07028200F030D5DE02087721
:10092A00E5082456F8E2050822785330070278567B
:10093A00E475F0011208BF0206632000EB7F2ED295
:10094A00008018EF540F2490D43440D4FF30040BA5
:10095A00EF24BFB41A0050032461FFE509600215B1
:10096A0009050CE50C7002050B30070D7853E47588
:10097A00F0011208BFEF0206A90227877403D20703
:10098A008003E4C207F50878531208CFE4F509F5A5
:10099A000BF50CE50960077F2012096580F5750AD9
:1009AA00FFC201C200C202C203C205C206C20812C5
:1009BA000933FF700D3007057F00120976AF0CAEC0
:1009CA000B22B4255FC2D5C204120933FF24D0B466
:1009DA000A00501A75F00A780930D50508B6FF01E1
:1009EA0006C6A426F620D5047002D20380D924CFE5
:1009FA00B41A00EF5004C2E5D204020C62D201809C
:100A0A00C6D20080C0D20280BCD2D580BAD20580BC
:100A1A00B47F201209652002077401B5090040F16C
:100A2A0012092AFF12096502099DD208D206809589
:100A3A0012092AFB12092AFA12092AF94A4B7006E4
:100A4A0079597A0D7BFF20022EE509602A7E008EF5
:100A5A008275830012067C60060EEE650A70F0C28B
:100A6A00D5EBC0E0EAC0E0E9C0E0EE120CC2D0E08B
:100A7A00F9D0E0FAD0E0FB120663FF60AAEBC0E00F
:100A8A00EAC0E0E9C0E0120965D0E02401F9D0E04B
:100A9A003400FAD0E0FBE50A0460DCD50AD9808785
:100AAA00D20280A2120CA560F7E50A7001041202B4
:100ABA00D3A90A600DE50A600914F50A120D4CEF74
:100ACA0060F3EA30E702F404C3995077EAF4250A9E
:100ADA000430E701E404F50A800D120CA560C1EAAE
:100AEA00050A250A1202D3EA7869F230E701E425F9
:100AFA000A04D50A0420050114120CC2E4C0E0124B
:100B0A000D4C7869E2601320E70714F212094D8050
:100B1A002204F2D0E014C0E07F0012094DE50A6019
:100B2A0007120944150A800B300503120944D0E064
:100B3A0002099DD0E00480C5120CA560A0E50A0454
:100B4A001202D37869EAF2E50A2005026001042458
:0C0B5A0004120CC274FF04C0E0120D4C29
:100B660012094DE50A2005026003120944D0E0B5DA
:100B76000AE87F451209577869E27F2B30E7047F40
:100B86002DF404C0E0120965D0E075F00A84C0F0C7
:100B960012094ED0E012094E02099D7910800279A1
:100BA60008C206C2088008D2D5790A8004790AC22A
:100BB600D5E50A047002F50AE4FAFDFEFF12092AD9
:100BC600FC7B0820011312092AFD7B1030000A1253
:100BD600092AFE12092AFF7B20EC3382D592D550D2
:100BE60013C3E43000069FFFE49EFEE42001039D4C
:100BF600FDE49CFCE4CBF8C201EC700CCFCECDCC6E
:100C0600E824F8F870F38017C3EF33FFEE33FEEDF8
:100C160033FDEC33FCEB33FB994002FB0FD8E9EBD9
:100C2600300105F8D0E0C448B201C0E00AEC4D4EF0
:100C36004F78207B0070C2EAB50A0040BCC0E012C3
:100C46000CC4D0F0D0E0200104C4C0E0C4B201C09E
:100C5600F012094ED0F0D5F0EB02099D1208D80A21
:100C66003A530BA1580A0B4C0A07420BA54F0BAD82
:100C7600440BAD490A20430BB3550AE4460B4245E3
:100C86000AAE470D79500A0F2D0A132E0A362B0A83
:100C960017230A34200D622A09CF4800000A2EE5E0
:100CA6000AB4FF03750A0612092AFC12092AFD1264
:100CB600092AFE12092AFF7862020302790AA2D5DE
:100CC600200314300509B910020404B9080104A26E
:100CD600D52006025001042002689202B509005090
:100CE60034C0E07F203003197F30A20272067205FD
:100CF600500F120D1BC202C206C205C2087F308009
:100D06000F300503E9C0E0120965300503D0E0F9AC
:100D1600D0E0B509CC3005177F30B9100C12096543
:100D26007F583004077F788003B9080312096530BD
:100D360002057F2D0209657F202008F87F2B2006FB
:100D4600F322920280CF7F00B4070050052462F898
:100D5600E2FF22286E756C6C2900D20112092A3036
:100D660001F8C201780930D50108F60209CF2D50E5
:100D760043495812092A2403B405004001E4900DA2
:100D86007493120956743A120956D203750904026D
:020D96000BA1AF
:1025CE00784DE2FF08E2FE08E2CF7856F208EEF20E
:1025DE0008EFF27850E2CBF208E2CAF208E2C9F252
:1025EE007F097859120663F20809E970010ADFF4CF
:0D25FE007850E2FB08E2FA08E2F9020986D3
:10028900E9D2E7C933E833F892D5EDD2E7CD33ECBB
:0702990033FC5002B2D52234
:1002A000EC30E7100FBF000C0EBE00080DBD0004BF
:1002B0000BEB6014A2D5EB13FCED92E7FD2274FF6B
:1002C000FCFDFEFF22E480F8A2D574FF13FC7D80C4
:0302D000E480EFD8
:1002D300F920E72824F950037907E4F42402FB18F2
:1002E300DBFDE224FB5014E9600DE4F218E204F2B2
:0F02F300B40A08E4F2D9F57401F20A22C2D52246
:10030200ED33EC3392D5FA602AB4FF33EDC2E77BCA
:10031200FF60067A037927E4227A03793020D50434
:100322007A03792B224E614E002B494E46002D490D
:100332004E4600E47A08F208DAFC7B00740722E8F1
:10034200C0E0ECC0E0EDC0E0EEC0E0EFC0E0EA7576
:10035200F010A4CAABF075F04DA42BFBE435F0FC11
:10036200EA2410FAEB34C5FBEC34D9FCEDC2E7FF0A
:1003720075F056A4F42411C5F0F434C58FF0A42A04
:10038200E5F03BE43CF220E71412052DD0E0FFD06B
:10039200E0FED0E0FDD0E0FC1201778014F40412FC
:1003A200052DD0E0FFD0E0FED0E0FDD0E0FC120051
:1003B2006ED0E0F8E2FAEDD2E7CD33EC332482FBE3
:1003C200E4C3CF33CFCE33CECD33CD33DBF37B0794
:1003D20075F00A846004F2081B0AE5F0F2088FF057
:1003E200740AA4FFACF08EF0740AA42CFEACF05098
:1003F200010C8DF0740AA42CFDE435F0F208DBDE6A
:030402007407225A
:100405000202BEE86480F8E933E83360110460F065
:10041500ED33EC337009E8FCE9FDEAFEEBFF22045D
:1004250060DED3EB9FEA9EE99DE8C2E78CF0C2F758
:1004350095F0400CE8CCF8E9CDF9EACEFAEBCFFB24
:1004450012028985D0F05804700320D5B3E80470F2
:10045500075002B2D50202C892D5EC0460F7E4CC8D
:10046500C0E0C398F8603B94186008400DD0E0FBED
:100475000202A0E4FBFAC9FC8028E830E406E4C9DE
:10048500FBE4CAFCE830E305E4C9CACBFCE8540741
:100495006010F8C3E913F9EA13FAEB13FBEC13FC4C
:1004A500D8F130F52FC3E49CFCEF9BFFEE9AFEEDEF
:1004B50099FDD0E0FBEF4E4D4C701222DB0302029A
:1004C500C5EC2CFCEF33FFEE33FEED33FDED30E7ED
:1004D500EB0202A0EF2BFFEE3AFEED39FDD0E0FB7B
:1004E50050130BBB00030202C8ED13FDEE13FEEF24
:0804F50013FFEC13FC0202A04E
:1004FD003F8000004120000042C80000447A000007
:10050D00461C400047C35000497424004B18968088
:10051D004CBEBC205A0E1BCA6753C21C749DC5AE7F
:10052D00FB60065407601C232312055BEB543860F7
:10053D000912054712055612006EECF8EDF9EEFAA8
:10054D00EFCB22EB12055680F1543803241C900496
:10055D00FDFE93FC0EEE93FD0EEE930ECE93FF2259
:101DF000021C24E493A3F8E493A34003F68001F2C9
:101E000008DFF48029E493A3F85407240CC8C333F3
:101E1000C4540F4420C8834004F456800146F6DFC2
:101E2000E4800B0102040810204080901EECE47E48
:101E3000019360BCA3FF543F30E509541FFEE493B7
:101E4000A360010ECF54C025E060A840B8E493A37E
:101E5000FAE493A3F8E493A3C8C582C8CAC583CAA9
:101E6000F0A3C8C582C8CAC583CADFE9DEE780BE61
:011F60000080
:10056D00E709F608DFFA8046E709F208DFFA803E70
:10057D0088828C83E709F0A3DFFA8032E309F6085D
:10058D00DFFA8078E309F208DFFA807088828C83C5
:10059D00E309F0A3DFFA806489828A83E0A3F60879
:1005AD00DFFA805889828A83E0A3F208DFFA804C53
:1005BD0080D280FA80C680D4806980F2803380102A
:1005CD0080A680EA809A80A880DA80E280CA803393
:1005DD0089828A83ECFAE493A3C8C582C8CCC5830B
:1005ED00CCF0A3C8C582C8CCC583CCDFE9DEE780DB
:1005FD000D89828A83E493A3F608DFF9ECFAA9F05A
:10060D00EDFB2289828A83ECFAE0A3C8C582C8CCAF
:10061D00C583CCF0A3C8C582C8CCC583CCDFEADEC8
:10062D00E880DB89828A83E493A3F208DFF980CC2A
:10063D0088F0EF60010E4E60C388F0ED2402B40423
:10064D000050B9F582EB2402B4040050AF232345CA
:06065D0082239005BD732D
:10066300BB010689828A83E0225002E722BBFE0295
:09067300E32289828A83E49322C8
:10067C00BB010CE58229F582E5833AF583E0225033
:10068C0006E92582F8E622BBFE06E92582F8E2227D
:0D069C00E58229F582E5833AF583E4932297
:1006A900BB010689828A83F0225002F722BBFE0130
:0206B900F3222A
:1006BB00F8BB010DE58229F582E5833AF583E8F075
:1006CB00225006E92582C8F622BBFE05E92582C821
:0206DB00F22209
:1006DD00EF8DF0A4A8F0CF8CF0A428CE8DF0A42E31
:0206ED00FE22EB
:1006EF00BC000BBE0029EF8DF084FFADF022E4CCEF
:1006FF00F875F008EF2FFFEE33FEEC33FCEE9DECB8
:10070F00984005FCEE9DFE0FD5F0E9E4CEFD22EDFD
:10071F00F8F5F0EE8420D21CFEADF075F008EF2F47
:10072F00FFED33FD4007985006D5F0F222C398FD38
:05073F000FD5F0EA22D5
:10074400C5F0F8A3E028F0C5F0F8E5821582700240
:060754001583E038F022DD
:10075A00E88FF0A4CC8BF0A42CFCE98EF0A42CFC3E
:10076A008AF0EDA42CFCEA8EF0A4CDA8F08BF0A4BC
:10077A002DCC3825F0FDE98FF0A42CCD35F0FCEB1B
:10078A008EF0A4FEA9F0EB8FF0A4CFC5F02ECD39E0
:0F079A00FEE43CFCEAA42DCE35F0FDE43CFC224D
:1007A90075F008758200EF2FFFEE33FECD33CDCC07
:1007B90033CCC58233C5829BED9AEC99E58298408A
:1007C9000CF582EE9BFEED9AFDEC99FC0FD5F0D667
:1007D900E4CEFBE4CDFAE4CCF9A88222B800C1B991
:1007E9000059BA002DEC8BF084CFCECDFCE5F0CBCF
:1007F900F97818EF2FFFEE33FEED33FDEC33FCEB08
:1008090033FB10D703994004EB99FB0FD8E5E4F9C2
:10081900FA227818EF2FFFEE33FEED33FDEC33FCAF
:10082900C933C910D7059BE99A4007EC9BFCE99AA3
:10083900F90FD8E0E4C9FAE4CCFB2275F010EF2FE8
:10084900FFEE33FEED33FDCC33CCC833C810D707E8
:100859009BEC9AE899400AED9BFDEC9AFCE899F823
:0E0869000FD5F0DAE4CDFBE4CCFAE4C8F922B6
:1024CB00C2D5E830E70FB2D5E4C39BFBE49AFAE43C
:1024DB0099F9E498F8EC30E717B2D51225011207F9
:1024EB00E5E4C39BFBE49AFAE499F9E498F88003DA
:1024FB001207E530D50DE4C39FFFE49EFEE49DFD7E
:04250B00E49CFC222E
:0E087700C3E49FFFE49EFEE49DFDE49CFC2292
:0C088500E2FC08E2FD08E2FE08E2FF22AF
:0D089100E2FB08E2F908E2FA08E2CBF822E7
:0C089E00ECF208EDF208EEF208EFF22296
:0C08AA00A42582F582E5F03583F5832259
:0908B600E2FB08E2FA08E2F92273
:1008BF00FAE2FB0808E2F925F0F218E2CA3AF2224E
:0908CF00EBF208EAF208E9F2225A
:1008D800D083D082F8E4937012740193700DA3A3AF
:1008E80093F8740193F5828883E4737402936860C3
:0608F800EFA3A3A380DFC3
:10278700EFB40A07740D122792740A309811A899AA
:10279700B8130CC2983098FDA899C298B811F630B2
:0727A70099FDC299F599228A
:1028D400E4FFFE120663600C0FEF70010E09E9704D
:0528E400F20A80EF2262
:100E7E00783CEBF208EAF208E9F208E2FB08E2FA43
:100E8E0008E2F91206637003020F25783CE2FB08B4
:100E9E00E2FA08E2F91206637003020F3008E2F973
:100EAE0008E2FA08E208C9F208EAF208E9F2783C28
:100EBE00E2F908E2FA08E27845C9F208EAF208E92E
:100ECE00F27842E2FB08E2FA08E2F9120663FF60EA
:100EDE002708E2FB08E2FA08E2F91206636F7018BF
:100EEE007844E22401F218E23400F27847E2240159
:100EFE00F218E23400F280C97842E2FB08E2FA0806
:100F0E00E2F91206637002800E783EE22401F218B6
:100F1E00E23400F2020E99783CE2FB08E2FA08E2B3
:090F2E00F9227B007A007900220F
:1008FE00EF4E6012EF60010EEDBB010B89828A8311
:10090E00F0A3DFFCDEFA2289F05007F709DFFCA91D
:0C091E00F022BBFEFCF309DFFCA9F02274
:00000001FF
